{
  "contractName": "Main",
  "abi": [
    {
      "inputs": [],
      "stateMutability": "nonpayable",
      "type": "constructor"
    },
    {
      "inputs": [
        {
          "internalType": "address",
          "name": "addr",
          "type": "address"
        },
        {
          "internalType": "address",
          "name": "invite_addr",
          "type": "address"
        }
      ],
      "name": "enterCrowdSale",
      "outputs": [],
      "stateMutability": "nonpayable",
      "type": "function"
    },
    {
      "inputs": [
        {
          "internalType": "address[]",
          "name": "addr_list",
          "type": "address[]"
        },
        {
          "internalType": "address[]",
          "name": "invite_addr_list",
          "type": "address[]"
        }
      ],
      "name": "enterMultiEnter",
      "outputs": [],
      "stateMutability": "nonpayable",
      "type": "function"
    },
    {
      "inputs": [],
      "name": "enterReenterMem",
      "outputs": [],
      "stateMutability": "nonpayable",
      "type": "function"
    },
    {
      "inputs": [
        {
          "internalType": "uint256",
          "name": "space_ID",
          "type": "uint256"
        },
        {
          "internalType": "address",
          "name": "addr",
          "type": "address"
        },
        {
          "internalType": "uint256",
          "name": "owner_ID",
          "type": "uint256"
        },
        {
          "internalType": "uint256",
          "name": "mem_type",
          "type": "uint256"
        }
      ],
      "name": "enterSpace",
      "outputs": [],
      "stateMutability": "nonpayable",
      "type": "function"
    },
    {
      "inputs": [],
      "name": "getAllMemberAddrs",
      "outputs": [
        {
          "internalType": "address[]",
          "name": "",
          "type": "address[]"
        }
      ],
      "stateMutability": "view",
      "type": "function"
    },
    {
      "inputs": [
        {
          "internalType": "address",
          "name": "addr",
          "type": "address"
        }
      ],
      "name": "getCurUpgradeSpace",
      "outputs": [
        {
          "internalType": "uint256",
          "name": "space_ID",
          "type": "uint256"
        }
      ],
      "stateMutability": "view",
      "type": "function"
    },
    {
      "inputs": [
        {
          "internalType": "uint256",
          "name": "space_ID",
          "type": "uint256"
        },
        {
          "internalType": "address",
          "name": "mem_addr",
          "type": "address"
        }
      ],
      "name": "getMemberCnt",
      "outputs": [
        {
          "internalType": "string",
          "name": "",
          "type": "string"
        }
      ],
      "stateMutability": "view",
      "type": "function"
    },
    {
      "inputs": [
        {
          "internalType": "uint256",
          "name": "space_ID",
          "type": "uint256"
        },
        {
          "internalType": "address",
          "name": "mem_addr",
          "type": "address"
        },
        {
          "internalType": "uint256",
          "name": "nIndex",
          "type": "uint256"
        }
      ],
      "name": "getMemberInfo",
      "outputs": [
        {
          "internalType": "string",
          "name": "",
          "type": "string"
        },
        {
          "internalType": "string",
          "name": "",
          "type": "string"
        },
        {
          "internalType": "string",
          "name": "",
          "type": "string"
        },
        {
          "internalType": "string",
          "name": "",
          "type": "string"
        },
        {
          "internalType": "string",
          "name": "",
          "type": "string"
        }
      ],
      "stateMutability": "view",
      "type": "function"
    },
    {
      "inputs": [
        {
          "internalType": "address",
          "name": "mem_addr",
          "type": "address"
        }
      ],
      "name": "getMemberWalletInfo",
      "outputs": [
        {
          "internalType": "uint256",
          "name": "",
          "type": "uint256"
        },
        {
          "internalType": "uint256[5]",
          "name": "",
          "type": "uint256[5]"
        },
        {
          "internalType": "uint256[5]",
          "name": "",
          "type": "uint256[5]"
        }
      ],
      "stateMutability": "view",
      "type": "function"
    },
    {
      "inputs": [
        {
          "internalType": "uint256",
          "name": "space_ID",
          "type": "uint256"
        },
        {
          "internalType": "uint256",
          "name": "member_TYPE",
          "type": "uint256"
        },
        {
          "internalType": "uint256",
          "name": "cursor",
          "type": "uint256"
        },
        {
          "internalType": "uint256",
          "name": "sub_cursor",
          "type": "uint256"
        }
      ],
      "name": "getReserveInfo",
      "outputs": [
        {
          "components": [
            {
              "internalType": "uint256",
              "name": "_created_at",
              "type": "uint256"
            },
            {
              "internalType": "uint256",
              "name": "_owner_ID",
              "type": "uint256"
            },
            {
              "internalType": "uint256",
              "name": "_member_ID",
              "type": "uint256"
            },
            {
              "internalType": "uint256",
              "name": "_member_TYPE",
              "type": "uint256"
            }
          ],
          "internalType": "struct MemberGroupLib.Member",
          "name": "",
          "type": "tuple"
        },
        {
          "internalType": "uint256",
          "name": "",
          "type": "uint256"
        }
      ],
      "stateMutability": "view",
      "type": "function"
    },
    {
      "inputs": [
        {
          "internalType": "uint256",
          "name": "space_ID",
          "type": "uint256"
        }
      ],
      "name": "getTotalNumBySpace",
      "outputs": [
        {
          "internalType": "string",
          "name": "",
          "type": "string"
        }
      ],
      "stateMutability": "view",
      "type": "function"
    },
    {
      "inputs": [],
      "name": "getWalletInfo",
      "outputs": [
        {
          "internalType": "string",
          "name": "",
          "type": "string"
        },
        {
          "internalType": "string",
          "name": "",
          "type": "string"
        },
        {
          "internalType": "string",
          "name": "",
          "type": "string"
        },
        {
          "internalType": "string",
          "name": "",
          "type": "string"
        }
      ],
      "stateMutability": "view",
      "type": "function"
    },
    {
      "inputs": [],
      "name": "output",
      "outputs": [
        {
          "internalType": "uint256",
          "name": "",
          "type": "uint256"
        }
      ],
      "stateMutability": "view",
      "type": "function"
    },
    {
      "inputs": [
        {
          "internalType": "address",
          "name": "addr",
          "type": "address"
        },
        {
          "internalType": "uint256",
          "name": "amount",
          "type": "uint256"
        }
      ],
      "name": "pushMoneyToPIF",
      "outputs": [],
      "stateMutability": "nonpayable",
      "type": "function"
    },
    {
      "inputs": [
        {
          "internalType": "address",
          "name": "addr",
          "type": "address"
        },
        {
          "internalType": "uint256",
          "name": "amount",
          "type": "uint256"
        }
      ],
      "name": "pushMoneyToUpgrade",
      "outputs": [],
      "stateMutability": "nonpayable",
      "type": "function"
    },
    {
      "inputs": [
        {
          "internalType": "uint256",
          "name": "space_ID",
          "type": "uint256"
        },
        {
          "internalType": "uint256",
          "name": "owner_ID",
          "type": "uint256"
        },
        {
          "internalType": "address",
          "name": "addr",
          "type": "address"
        }
      ],
      "name": "registerReentryMembers",
      "outputs": [],
      "stateMutability": "nonpayable",
      "type": "function"
    },
    {
      "inputs": [
        {
          "internalType": "uint256",
          "name": "value",
          "type": "uint256"
        }
      ],
      "name": "setValue",
      "outputs": [],
      "stateMutability": "nonpayable",
      "type": "function"
    }
  ],
  "bytecode": "0x60806040523480156200001157600080fd5b50d380156200001f57600080fd5b50d280156200002d57600080fd5b5060005b62000046620001ed60201b620013df1760201c565b811015620001e65762000090600182620000619190620003d8565b60078360058110620000785762000077620004bc565b5b600c0201620001f660201b620013e81790919060201c565b620000e03073ffffffffffffffffffffffffffffffffffffffff1663f0835dd360078460058110620000c757620000c6620004bc565b5b600c02016200027060201b62001459179092919060201c565b620001303073ffffffffffffffffffffffffffffffffffffffff1663bdd5183a60078460058110620001175762000116620004bc565b5b600c0201620002ca60201b620014b3179092919060201c565b620001803073ffffffffffffffffffffffffffffffffffffffff16639eddc7a960078460058110620001675762000166620004bc565b5b600c02016200032460201b6200150d179092919060201c565b620001d03073ffffffffffffffffffffffffffffffffffffffff16635524107760078460058110620001b757620001b6620004bc565b5b600c02016200037e60201b62001567179092919060201c565b8080620001dd906200043f565b91505062000031565b50620004eb565b60006005905090565b8082600701819055506000826003016000600381106200021b576200021a620004bc565b5b01819055506000826003016001600381106200023c576200023b620004bc565b5b01819055506000826003016002600381106200025d576200025c620004bc565b5b0181905550600082600601819055505050565b81818460080160006101000a81548177ffffffffffffffffffffffffffffffffffffffffffffffff02191690848463ffffffff169073ffffffffffffffffffffffffffffffffffffffff1660201b17021790555050505050565b81818460090160006101000a81548177ffffffffffffffffffffffffffffffffffffffffffffffff02191690848463ffffffff169073ffffffffffffffffffffffffffffffffffffffff1660201b17021790555050505050565b818184600a0160006101000a81548177ffffffffffffffffffffffffffffffffffffffffffffffff02191690848463ffffffff169073ffffffffffffffffffffffffffffffffffffffff1660201b17021790555050505050565b818184600b0160006101000a81548177ffffffffffffffffffffffffffffffffffffffffffffffff02191690848463ffffffff169073ffffffffffffffffffffffffffffffffffffffff1660201b17021790555050505050565b6000620003e58262000435565b9150620003f28362000435565b9250827fffffffffffffffffffffffffffffffffffffffffffffffffffffffffffffffff038211156200042a57620004296200048d565b5b828201905092915050565b6000819050919050565b60006200044c8262000435565b91507fffffffffffffffffffffffffffffffffffffffffffffffffffffffffffffffff8214156200048257620004816200048d565b5b600182019050919050565b7f4e487b7100000000000000000000000000000000000000000000000000000000600052601160045260246000fd5b7f4e487b7100000000000000000000000000000000000000000000000000000000600052603260045260246000fd5b61580c80620004fb6000396000f3fe608060405234801561001057600080fd5b50d3801561001d57600080fd5b50d2801561002a57600080fd5b50600436106101255760003560e01c80639eddc7a9116100bc578063c352dae21161008b578063c352dae2146102bc578063d931edd1146102dd578063f0835dd314610311578063f20eaeb81461032d578063fbee40ea1461034b57610125565b80639eddc7a914610248578063a4732d4b14610264578063aa05a5c414610280578063bdd5183a146102b257610125565b806355241077116100f857806355241077146101c45780635a33d61c146101e05780635bee8f77146101fc5780637c35d3331461022c57610125565b80630e702d571461012a5780630eb528a51461015a578063449b1cd71461017657806354acba1614610194575b600080fd5b610144600480360381019061013f91906148fe565b61037c565b6040516101519190614f95565b60405180910390f35b610174600480360381019061016f919061496b565b61042c565b005b61017e610489565b60405161018b9190614e51565b60405180910390f35b6101ae60048036038101906101a99190614a7d565b610517565b6040516101bb9190614e73565b60405180910390f35b6101de60048036038101906101d99190614a23565b61061b565b005b6101fa60048036038101906101f5919061492b565b610625565b005b61021660048036038101906102119190614a23565b610830565b6040516102239190614e73565b60405180910390f35b610246600480360381019061024191906149ab565b61087b565b005b610262600480360381019061025d9190614b77565b610940565b005b61027e6004803603810190610279919061496b565b6109fe565b005b61029a600480360381019061029591906148fe565b610cdb565b6040516102a99392919061507f565b60405180910390f35b6102ba610dec565b005b6102c4610f8f565b6040516102d49493929190614e95565b60405180910390f35b6102f760048036038101906102f29190614abd565b61102c565b604051610308959493929190614ef6565b60405180910390f35b61032b60048036038101906103269190614b10565b6111a8565b005b6103356111f4565b6040516103429190614f95565b60405180910390f35b61036560048036038101906103609190614bca565b6111fe565b604051610373929190614f6c565b60405180910390f35b60006001905060005b61038d6113df565b811015610426576000600782600581106103aa576103a9615718565b5b600c020160010160008573ffffffffffffffffffffffffffffffffffffffff1673ffffffffffffffffffffffffffffffffffffffff168152602001908152602001600020600201805490501461040e5760018161040791906151c1565b9150610413565b610426565b808061041e90615611565b915050610385565b50919050565b80604360008473ffffffffffffffffffffffffffffffffffffffff1673ffffffffffffffffffffffffffffffffffffffff168152602001908152602001600020600a01600082825461047e91906151c1565b925050819055505050565b6060604680548060200260200160405190810160405280929190818152602001828054801561050d57602002820191906000526020600020905b8160009054906101000a900473ffffffffffffffffffffffffffffffffffffffff1673ffffffffffffffffffffffffffffffffffffffff16815260200190600101908083116104c3575b5050505050905090565b60606000600760018561052a91906154cb565b6005811061053b5761053a615718565b5b600c020160010160008473ffffffffffffffffffffffffffffffffffffffff1673ffffffffffffffffffffffffffffffffffffffff168152602001908152602001600020600201805480602002602001604051908101604052809291908181526020016000905b828210156105fc5783829060005260206000209060040201604051806080016040529081600082015481526020016001820154815260200160028201548152602001600382015481525050815260200190600101906105a2565b505050509050600061060e82516115c1565b9050809250505092915050565b8060488190555050565b600073ffffffffffffffffffffffffffffffffffffffff16604460008473ffffffffffffffffffffffffffffffffffffffff1673ffffffffffffffffffffffffffffffffffffffff16815260200190815260200160002060009054906101000a900473ffffffffffffffffffffffffffffffffffffffff1673ffffffffffffffffffffffffffffffffffffffff16141561079b576046829080600181540180825580915050600190039060005260206000200160009091909190916101000a81548173ffffffffffffffffffffffffffffffffffffffff021916908373ffffffffffffffffffffffffffffffffffffffff16021790555080604460008473ffffffffffffffffffffffffffffffffffffffff1673ffffffffffffffffffffffffffffffffffffffff16815260200190815260200160002060006101000a81548173ffffffffffffffffffffffffffffffffffffffff021916908373ffffffffffffffffffffffffffffffffffffffff1602179055505b604560008273ffffffffffffffffffffffffffffffffffffffff1673ffffffffffffffffffffffffffffffffffffffff16815260200190815260200160002060008154809291906107eb90615611565b919050555061082c604360016044600586600080600760006005811061081457610813615718565b5b600c020161172290979695949392919063ffffffff16565b5050565b606060006108706001600760018661084891906154cb565b6005811061085957610858615718565b5b600c02016006015461086b91906154cb565b6115c1565b905080915050919050565b60005b825181101561093b573073ffffffffffffffffffffffffffffffffffffffff16635a33d61c8483815181106108b6576108b5615718565b5b60200260200101518484815181106108d1576108d0615718565b5b60200260200101516040518363ffffffff1660e01b81526004016108f6929190614e28565b600060405180830381600087803b15801561091057600080fd5b505af1158015610924573d6000803e3d6000fd5b50505050808061093390615611565b91505061087e565b505050565b604760405180606001604052808581526020018481526020018373ffffffffffffffffffffffffffffffffffffffff168152509080600181540180825580915050600190039060005260206000209060030201600090919091909150600082015181600001556020820151816001015560408201518160020160006101000a81548173ffffffffffffffffffffffffffffffffffffffff021916908373ffffffffffffffffffffffffffffffffffffffff1602179055505050505050565b60006040518060c00160405280600161ffff168152602001606461ffff1681526020016101f461ffff1681526020016109c461ffff1681526020016130d461ffff16815260200161f42461ffff16815250905060003073ffffffffffffffffffffffffffffffffffffffff16630e702d57856040518263ffffffff1660e01b8152600401610a8c9190614e0d565b60206040518083038186803b158015610aa457600080fd5b505afa158015610ab8573d6000803e3d6000fd5b505050506040513d601f19601f82011682018060405250810190610adc9190614a50565b90506005811415610aee575050610cd7565b82604360008673ffffffffffffffffffffffffffffffffffffffff1673ffffffffffffffffffffffffffffffffffffffff168152602001908152602001600020600001600183610b3e91906154cb565b60058110610b4f57610b4e615718565b5b016000828254610b5f91906151c1565b925050819055505b610bb881604360008773ffffffffffffffffffffffffffffffffffffffff1673ffffffffffffffffffffffffffffffffffffffff168152602001908152602001600020611b0d90919063ffffffff16565b15610cd45781600182610bcb91906151c1565b60068110610bdc57610bdb615718565b5b602002015161ffff16604360008673ffffffffffffffffffffffffffffffffffffffff1673ffffffffffffffffffffffffffffffffffffffff168152602001908152602001600020600001600183610c3491906154cb565b60058110610c4557610c44615718565b5b016000828254610c5591906154cb565b925050819055503073ffffffffffffffffffffffffffffffffffffffff1663f0835dd38286600060026040518563ffffffff1660e01b8152600401610c9d9493929190614fb0565b600060405180830381600087803b158015610cb757600080fd5b505af1158015610ccb573d6000803e3d6000fd5b50505050610b67565b50505b5050565b6000610ce5614787565b610ced614787565b6000604360008673ffffffffffffffffffffffffffffffffffffffff1673ffffffffffffffffffffffffffffffffffffffff16815260200190815260200160002060405180606001604052908160008201600580602002604051908101604052809291908260058015610d75576020028201915b815481526020019060010190808311610d61575b5050505050815260200160058201600580602002604051908101604052809291908260058015610dba576020028201915b815481526020019060010190808311610da6575b50505050508152602001600a820154815250509050806040015181600001518260200151935093509350509193909250565b60006047805490501415610dff57610f8d565b600060476001604780549050610e1591906154cb565b81548110610e2657610e25615718565b5b906000526020600020906003020160405180606001604052908160008201548152602001600182015481526020016002820160009054906101000a900473ffffffffffffffffffffffffffffffffffffffff1673ffffffffffffffffffffffffffffffffffffffff1673ffffffffffffffffffffffffffffffffffffffff168152505090506047805480610ebd57610ebc6156e9565b5b600190038181906000526020600020906003020160008082016000905560018201600090556002820160006101000a81549073ffffffffffffffffffffffffffffffffffffffff0219169055505090553073ffffffffffffffffffffffffffffffffffffffff1663f0835dd382600001518360400151846020015160016040518563ffffffff1660e01b8152600401610f599493929190614ff5565b600060405180830381600087803b158015610f7357600080fd5b505af1158015610f87573d6000803e3d6000fd5b50505050505b565b6060806060806000610fa56001600001546115c1565b90506000610fca60018001600060038110610fc357610fc2615718565b5b01546115c1565b90506000610fef60018001600160038110610fe857610fe7615718565b5b01546115c1565b905060006110146001800160026003811061100d5761100c615718565b5b01546115c1565b90508383838397509750975097505050505090919293565b6060806060806060600080600080600760018d61104991906154cb565b6005811061105a57611059615718565b5b600c020160010160008c73ffffffffffffffffffffffffffffffffffffffff1673ffffffffffffffffffffffffffffffffffffffff1681526020019081526020016000206002018a815481106110b3576110b2615718565b5b906000526020600020906004020160405180608001604052908160008201548152602001600182015481526020016002820154815260200160038201548152505090506111308160400151600760018f61110d91906154cb565b6005811061111e5761111d615718565b5b600c0201611bb290919063ffffffff16565b8094508195508296505050506000611147856115c1565b90506000611154856115c1565b90506000611161856115c1565b9050600061117285604001516115c1565b9050600061118386606001516115c1565b905080828686869d509d509d509d509d50505050505050505050939792965093509350565b6111ee6043600160446005878787600760018d6111c591906154cb565b600581106111d6576111d5615718565b5b600c020161172290979695949392919063ffffffff16565b50505050565b6000604854905090565b6112066147a9565b60008060006112136147a9565b6000600760018b61122491906154cb565b6005811061123557611234615718565b5b600c0201600201888154811061124e5761124d615718565b5b9060005260206000200160009054906101000a900473ffffffffffffffffffffffffffffffffffffffff1690506000600760018c61128c91906154cb565b6005811061129d5761129c615718565b5b600c020160010160008373ffffffffffffffffffffffffffffffffffffffff1673ffffffffffffffffffffffffffffffffffffffff168152602001908152602001600020600201805480602002602001604051908101604052809291908181526020016000905b8282101561135e578382906000526020600020906004020160405180608001604052908160008201548152602001600182015481526020016002820154815260200160038201548152505081526020019060010190611304565b50505050905060008151146113c65780518810156113945780888151811061138957611388615718565b5b602002602001015192505b600181516113a291906154cb565b8810156113bc5787806113b490615611565b9850506113c1565b600097505b6113cb565b600097505b828896509650505050505094509492505050565b60006005905090565b80826007018190555060008260030160006003811061140a57611409615718565b5b018190555060008260030160016003811061142857611427615718565b5b018190555060008260030160026003811061144657611445615718565b5b0181905550600082600601819055505050565b81818460080160006101000a81548177ffffffffffffffffffffffffffffffffffffffffffffffff02191690848463ffffffff169073ffffffffffffffffffffffffffffffffffffffff1660201b17021790555050505050565b81818460090160006101000a81548177ffffffffffffffffffffffffffffffffffffffffffffffff02191690848463ffffffff169073ffffffffffffffffffffffffffffffffffffffff1660201b17021790555050505050565b818184600a0160006101000a81548177ffffffffffffffffffffffffffffffffffffffffffffffff02191690848463ffffffff169073ffffffffffffffffffffffffffffffffffffffff1660201b17021790555050505050565b818184600b0160006101000a81548177ffffffffffffffffffffffffffffffffffffffffffffffff02191690848463ffffffff169073ffffffffffffffffffffffffffffffffffffffff1660201b17021790555050505050565b60606000821415611609576040518060400160405280600181526020017f3000000000000000000000000000000000000000000000000000000000000000815250905061171d565b600082905060005b6000821461163b57808061162490615611565b915050600a826116349190615248565b9150611611565b60008167ffffffffffffffff81111561165757611656615747565b5b6040519080825280601f01601f1916602001820160405280156116895781602001600182028036833780820191505090505b5090505b60008514611716576001826116a291906154cb565b9150600a856116b1919061565a565b60306116bd91906151c1565b60f81b8183815181106116d3576116d2615718565b5b60200101907effffffffffffffffffffffffffffffffffffffffffffffffffffffffffffff1916908160001a905350600a8561170f9190615248565b945061168d565b8093505050505b919050565b600061172d89611ec5565b905088600201849080600181540180825580915050600190039060005260206000200160009091909190916101000a81548173ffffffffffffffffffffffffffffffffffffffff021916908373ffffffffffffffffffffffffffffffffffffffff1602179055506117fb8360018b600601546117a991906154cb565b848c60010160008973ffffffffffffffffffffffffffffffffffffffff1673ffffffffffffffffffffffffffffffffffffffff16815260200190815260200160002061231d909392919063ffffffff16565b88600b0160009054906101000a90048060201c73ffffffffffffffffffffffffffffffffffffffff169063ffffffff168a600601546040518263ffffffff1660e01b815260040161184c9190614f95565b600060405180830381600087803b15801561186657600080fd5b505af115801561187a573d6000803e3d6000fd5b5050505060018960060154141561192b5760006040518060a00160405280606461ffff1681526020016101f461ffff1681526020016109c461ffff1681526020016130d461ffff16815260200161f42461ffff16815250905060058160018c600701546118e791906154cb565b600581106118f8576118f7615718565b5b60200201516119079190615217565b61ffff1688600001600082825461191e91906151c1565b925050819055505061199f565b61199e848760008773ffffffffffffffffffffffffffffffffffffffff1673ffffffffffffffffffffffffffffffffffffffff16815260200190815260200160002060009054906101000a900473ffffffffffffffffffffffffffffffffffffffff168b61239b9092919063ffffffff16565b5b6119bb8888866001858e61243c9095949392919063ffffffff16565b6119d78888866002858e61243c9095949392919063ffffffff16565b6119f38888866003858e61243c9095949392919063ffffffff16565b611a0887858b61250d9092919063ffffffff16565b8373ffffffffffffffffffffffffffffffffffffffff163185600060028110611a3457611a33615718565b5b016000828254611a4491906151c1565b925050819055508373ffffffffffffffffffffffffffffffffffffffff163185600160028110611a7757611a76615718565b5b016000828254611a8791906151c1565b925050819055508860090160009054906101000a90048060201c73ffffffffffffffffffffffffffffffffffffffff169063ffffffff166040518163ffffffff1660e01b8152600401600060405180830381600087803b158015611aea57600080fd5b505af1158015611afe573d6000803e3d6000fd5b50505050505050505050505050565b6000806040518060a00160405280600161ffff1681526020016101f461ffff1681526020016109c461ffff1681526020016130d461ffff16815260200161f42461ffff168152509050808360058110611b6957611b68615718565b5b602002015161ffff1684600001600185611b8391906154cb565b60058110611b9457611b93615718565b5b01541015611ba6576000915050611bac565b60019150505b92915050565b60008060008060009050600080600080611bca614787565b611bd26147d1565b600093505b611bdf6113df565b841015611cae57611bee6127d7565b8c60000160008d8152602001908152602001600020600186611c1091906151c1565b60068110611c2157611c20615718565b5b01541415611c3e5786868699509950995050505050505050611ebe565b8b60000160008c8152602001908152602001600020600185611c6091906151c1565b60068110611c7157611c70615718565b5b0154828880611c7f90615611565b995060058110611c9257611c91615718565b5b6020020181815250508380611ca690615611565b945050611bd7565b600093505b611cbb6113df565b841015611dcf576000828560058110611cd757611cd6615718565b5b60200201519050600093505b611ceb6113df565b841015611dbb57611cfa6127d7565b8d6000016000838152602001908152602001600020600186611d1c91906151c1565b60068110611d2d57611d2c615718565b5b01541415611d4b578787879a509a509a505050505050505050611ebe565b8c6000016000828152602001908152602001600020600185611d6d91906151c1565b60068110611d7e57611d7d615718565b5b0154828880611d8c90615611565b995060198110611d9f57611d9e615718565b5b6020020181815250508380611db390615611565b945050611ce3565b508380611dc790615611565b945050611cb3565b600093505b6002611dde6113df565b611de89190615317565b841015611ead576000818560198110611e0457611e03615718565b5b60200201519050600093505b611e186113df565b841015611e9957611e276127d7565b8d6000016000838152602001908152602001600020600186611e4991906151c1565b60068110611e5a57611e59615718565b5b01541415611e78578787879a509a509a505050505050505050611ebe565b8580611e8390615611565b9650508380611e9190615611565b945050611e10565b508380611ea590615611565b945050611dd4565b868686995099509950505050505050505b9250925092565b6000816006016000815480929190611edc90615611565b919050555060008060008085600301600060038110611efe57611efd615718565b5b01541415611f3057600185600301600060038110611f1f57611f1e615718565b5b018190555060019350505050612318565b600185600301600060038110611f4957611f48615718565b5b015414156120475784600301600160038110611f6857611f67615718565b5b016000815480929190611f7a90615611565b9190505550611fc5611f8a6127d7565b60018760060154611f9b91906154cb565b87600301600160038110611fb257611fb1615718565b5b0154886127dc909392919063ffffffff16565b5084600301600160038110611fdd57611fdc615718565b5b01549350600585600301600160038110611ffa57611ff9615718565b5b0154141561203f5760028560030160006003811061201b5761201a615718565b5b018190555060008560030160016003811061203957612038615718565b5b01819055505b505050612318565b6002856003016000600381106120605761205f615718565b5b01541415612216578460030160016003811061207f5761207e615718565b5b01600081548092919061209190615611565b919050555060008560000160006120a66127d7565b815260200190815260200160002060016120be6113df565b6001896003016001600381106120d7576120d6615718565b5b01546120e391906154cb565b6120ed9190615248565b6120f791906151c1565b6006811061210857612107615718565b5b01549050612175816001886006015461212191906154cb565b600161212b6113df565b60018b60030160016003811061214457612143615718565b5b015461215091906154cb565b61215a919061565a565b61216491906151c1565b896127dc909392919063ffffffff16565b508560030160016003811061218d5761218c615718565b5b015494506019866003016001600381106121aa576121a9615718565b5b0154141561220d576003866003016000600381106121cb576121ca615718565b5b01819055506000866003016001600381106121e9576121e8615718565b5b018190555060008660030160026003811061220757612206615718565b5b01819055505b50505050612318565b61221f85612822565b809350819450829550505050612242838383886127dc909392919063ffffffff16565b5061224c85612ab0565b93508460030160006003811061226557612264615718565b5b0154600561227391906152cc565b8560030160016003811061228a57612289615718565b5b0154141561231457846003016000600381106122a9576122a8615718565b5b0160008154809291906122bb90615611565b9190505550846003016002600381106122d7576122d6615718565b5b0154856003016001600381106122f0576122ef615718565b5b018190555060008560030160026003811061230e5761230d615718565b5b01819055505b5050505b919050565b83600201604051806080016040528042815260200185815260200184815260200183815250908060018154018082558091505060019003906000526020600020906004020160009091909190915060008201518160000155602082015181600101556040820151816002015560608201518160030155505050505050565b60006040518060c00160405280600161ffff168152602001606461ffff1681526020016101f461ffff1681526020016109c461ffff1681526020016130d461ffff16815260200161f42461ffff168152509050612436838360056123fd612bf2565b8589600701546006811061241457612413615718565b5b602002015161ffff166124279190615471565b6124319190615248565b612bfb565b50505050565b60006040518060800160405280600160ff168152602001600560ff168152602001601960ff168152602001607d60ff16815250905060008082856004811061248757612486615718565b5b602002015160ff168461249a919061565a565b146124ca578184600481106124b2576124b1615718565b5b602002015160ff16836124c5919061565a565b6124e6565b8184600481106124dd576124dc615718565b5b602002015160ff165b905061250387878787858d612c659095949392919063ffffffff16565b5050505050505050565b60006040518060c00160405280600161ffff168152602001606461ffff1681526020016101f461ffff1681526020016109c461ffff1681526020016130d461ffff16815260200161f42461ffff168152509050600061256a61402e565b90506125cc838260006003811061258457612583615718565b5b60200201516064612593612bf2565b868a60070154600681106125aa576125a9615718565b5b602002015161ffff166125bd9190615471565b6125c79190615248565b612bfb565b60646125d6612bf2565b838760070154600681106125ed576125ec615718565b5b602002015161ffff166126009190615471565b61260a9190615248565b8460010160006003811061262157612620615718565b5b01600082825461263191906151c1565b9250508190555061269883826001600381106126505761264f615718565b5b6020020151606461265f612bf2565b868a600701546006811061267657612675615718565b5b602002015161ffff166126899190615471565b6126939190615248565b612bfb565b60646126a2612bf2565b838760070154600681106126b9576126b8615718565b5b602002015161ffff166126cc9190615471565b6126d69190615248565b846001016001600381106126ed576126ec615718565b5b0160008282546126fd91906151c1565b92505081905550612764838260026003811061271c5761271b615718565b5b6020020151606461272b612bf2565b868a600701546006811061274257612741615718565b5b602002015161ffff166127559190615471565b61275f9190615248565b612bfb565b606461276e612bf2565b8387600701546006811061278557612784615718565b5b602002015161ffff166127989190615471565b6127a29190615248565b846001016002600381106127b9576127b8615718565b5b0160008282546127c991906151c1565b925050819055505050505050565b600090565b60006127e88584614165565b1580156127fb57506127fa8585614165565b5b156128155761280c85858585614222565b6001905061281a565b600090505b949350505050565b60008060008060008060008760030160006003811061284457612843615718565b5b015461284e6113df565b61285891906152cc565b915060018860030160006003811061287357612872615718565b5b015461287f91906151c1565b6128876113df565b61289191906152cc565b90506064603c836128a29190615471565b6128ac9190615248565b886003016001600381106128c3576128c2615718565b5b0154101561294b57876003016001600381106128e2576128e1615718565b5b0160008154809291906128f490615611565b919050555061293e8860030160016003811061291357612912615718565b5b01548960030160006003811061292c5761292b615718565b5b01548a6142899092919063ffffffff16565b8094508195505050612a8c565b606460088261295a9190615471565b6129649190615248565b8860030160026003811061297b5761297a615718565b5b01541015612a0f578760030160026003811061299a57612999615718565b5b0160008154809291906129ac90615611565b9190505550612a02886003016002600381106129cb576129ca615718565b5b015460018a6003016000600381106129e6576129e5615718565b5b01546129f291906151c1565b8a6142899092919063ffffffff16565b8094508195505050612a8b565b87600301600160038110612a2657612a25615718565b5b016000815480929190612a3890615611565b9190505550612a8288600301600160038110612a5757612a56615718565b5b015489600301600060038110612a7057612a6f615718565b5b01548a6142899092919063ffffffff16565b80945081955050505b5b8360018960060154612a9e91906154cb565b84965096509650505050509193909250565b600080600083600301600060038110612acc57612acb615718565b5b0154612ad66113df565b612ae091906152cc565b9150600184600301600060038110612afb57612afa615718565b5b0154612b0791906151c1565b612b0f6113df565b612b1991906152cc565b90506064603c83612b2a9190615471565b612b349190615248565b84600301600160038110612b4b57612b4a615718565b5b01541015612b755783600301600160038110612b6a57612b69615718565b5b015492505050612bed565b6064600882612b849190615471565b612b8e9190615248565b84600301600260038110612ba557612ba4615718565b5b01541015612bcf5783600301600260038110612bc457612bc3615718565b5b015492505050612bed565b83600301600160038110612be657612be5615718565b5b0154925050505b919050565b60006001905090565b8173ffffffffffffffffffffffffffffffffffffffff168373ffffffffffffffffffffffffffffffffffffffff167fddf252ad1be2c89b69c2b068fc378daa952ba7f163c4a11628f55a4df523b3ef83604051612c589190614f95565b60405180910390a3505050565b600060018760060154612c7891906154cb565b90506000808860070154905060006040518060c00160405280600161ffff168152602001606461ffff1681526020016101f461ffff1681526020016109c461ffff1681526020016130d461ffff16815260200161f42461ffff1681525090505b85831015612d1c576000612cf5858c6143cf90919063ffffffff16565b809650819250505080612d085750612d1c565b8380612d1390615611565b94505050612cd8565b858314612f09576001861415612dc657612d34612bf2565b6014828460068110612d4957612d48615718565b5b6020020151612d589190615217565b61ffff16612d669190615471565b886000016000828254612d7991906151c1565b92505081905550612dc587612d8c614466565b60046003858760068110612da357612da2615718565b5b6020020151612db29190615435565b612dbc9190615217565b61ffff16614482565b5b6002861415612e6957612dd7612bf2565b6005828460068110612dec57612deb615718565b5b6020020151612dfb9190615217565b61ffff16612e099190615471565b886000016000828254612e1c91906151c1565b92505081905550612e6887612e2f614466565b600a6007858760068110612e4657612e45615718565b5b6020020151612e559190615435565b612e5f9190615217565b61ffff16614482565b5b6003861415612f0057612e7a612bf2565b6002828460068110612e8f57612e8e615718565b5b6020020151612e9e9190615217565b61ffff16612eac9190615471565b886000016000828254612ebf91906151c1565b92505081905550612eff87612ed2614466565b6002848660068110612ee757612ee6615718565b5b6020020151612ef69190615217565b61ffff16614482565b5b50505050614026565b6001861415612f8d57612f84878b6002018681548110612f2c57612f2b615718565b5b9060005260206000200160009054906101000a900473ffffffffffffffffffffffffffffffffffffffff166014848660068110612f6c57612f6b615718565b5b6020020151612f7b9190615217565b61ffff166144b0565b50505050614026565b60028614156133b45760018510158015612fa8575060058511155b15613075576005818360068110612fc257612fc1615718565b5b6020020151612fd19190615217565b61ffff168960008c6002018781548110612fee57612fed615718565b5b9060005260206000200160009054906101000a900473ffffffffffffffffffffffffffffffffffffffff1673ffffffffffffffffffffffffffffffffffffffff1673ffffffffffffffffffffffffffffffffffffffff168152602001908152602001600020600a01600082825461306591906151c1565b9250508190555050505050614026565b60158510158015613087575060198511155b156133395760006001905060058284600681106130a7576130a6615718565b5b60200201516130b69190615217565b61ffff168a60008d60020188815481106130d3576130d2615718565b5b9060005260206000200160009054906101000a900473ffffffffffffffffffffffffffffffffffffffff1673ffffffffffffffffffffffffffffffffffffffff1673ffffffffffffffffffffffffffffffffffffffff16815260200190815260200160002060050160018361314891906154cb565b6005811061315957613158615718565b5b01600082825461316991906151c1565b92505081905550613200818b60008e600201898154811061318d5761318c615718565b5b9060005260206000200160009054906101000a900473ffffffffffffffffffffffffffffffffffffffff1673ffffffffffffffffffffffffffffffffffffffff1673ffffffffffffffffffffffffffffffffffffffff1681526020019081526020016000206144de90919063ffffffff16565b1561332f5781816006811061321857613217615718565b5b602002015161ffff168a60008d600201888154811061323a57613239615718565b5b9060005260206000200160009054906101000a900473ffffffffffffffffffffffffffffffffffffffff1673ffffffffffffffffffffffffffffffffffffffff1673ffffffffffffffffffffffffffffffffffffffff1681526020019081526020016000206005016001836132af91906154cb565b600581106132c0576132bf615718565b5b0160008282546132d091906154cb565b9250508190555061332e81868d60020188815481106132f2576132f1615718565b5b9060005260206000200160009054906101000a900473ffffffffffffffffffffffffffffffffffffffff168e61458e909392919063ffffffff16565b5b5050505050614026565b6133ab878b600201868154811061335357613352615718565b5b9060005260206000200160009054906101000a900473ffffffffffffffffffffffffffffffffffffffff16600584866006811061339357613392615718565b5b60200201516133a29190615217565b61ffff166144b0565b50505050614026565b600386141561402157600185101580156133cf5750600b8511155b15613bed5760058a60070154141561393c576006851161369257600060029050600282846006811061340457613403615718565b5b60200201516134139190615217565b61ffff168a60008d60020188815481106134305761342f615718565b5b9060005260206000200160009054906101000a900473ffffffffffffffffffffffffffffffffffffffff1673ffffffffffffffffffffffffffffffffffffffff1673ffffffffffffffffffffffffffffffffffffffff1681526020019081526020016000206005016001836134a591906154cb565b600581106134b6576134b5615718565b5b0160008282546134c691906151c1565b9250508190555061355d818b60008e60020189815481106134ea576134e9615718565b5b9060005260206000200160009054906101000a900473ffffffffffffffffffffffffffffffffffffffff1673ffffffffffffffffffffffffffffffffffffffff1673ffffffffffffffffffffffffffffffffffffffff1681526020019081526020016000206144de90919063ffffffff16565b1561368c5781816006811061357557613574615718565b5b602002015161ffff168a60008d600201888154811061359757613596615718565b5b9060005260206000200160009054906101000a900473ffffffffffffffffffffffffffffffffffffffff1673ffffffffffffffffffffffffffffffffffffffff1673ffffffffffffffffffffffffffffffffffffffff16815260200190815260200160002060050160018361360c91906154cb565b6005811061361d5761361c615718565b5b01600082825461362d91906154cb565b9250508190555061368b81868d600201888154811061364f5761364e615718565b5b9060005260206000200160009054906101000a900473ffffffffffffffffffffffffffffffffffffffff168e61458e909392919063ffffffff16565b5b50613937565b60006003905060028284600681106136ad576136ac615718565b5b60200201516136bc9190615217565b61ffff168a60008d60020188815481106136d9576136d8615718565b5b9060005260206000200160009054906101000a900473ffffffffffffffffffffffffffffffffffffffff1673ffffffffffffffffffffffffffffffffffffffff1673ffffffffffffffffffffffffffffffffffffffff16815260200190815260200160002060050160018361374e91906154cb565b6005811061375f5761375e615718565b5b01600082825461376f91906151c1565b92505081905550613806818b60008e600201898154811061379357613792615718565b5b9060005260206000200160009054906101000a900473ffffffffffffffffffffffffffffffffffffffff1673ffffffffffffffffffffffffffffffffffffffff1673ffffffffffffffffffffffffffffffffffffffff1681526020019081526020016000206144de90919063ffffffff16565b156139355781816006811061381e5761381d615718565b5b602002015161ffff168a60008d60020188815481106138405761383f615718565b5b9060005260206000200160009054906101000a900473ffffffffffffffffffffffffffffffffffffffff1673ffffffffffffffffffffffffffffffffffffffff1673ffffffffffffffffffffffffffffffffffffffff1681526020019081526020016000206005016001836138b591906154cb565b600581106138c6576138c5615718565b5b0160008282546138d691906154cb565b9250508190555061393481868d60020188815481106138f8576138f7615718565b5b9060005260206000200160009054906101000a900473ffffffffffffffffffffffffffffffffffffffff168e61458e909392919063ffffffff16565b5b505b613be4565b600281836006811061395157613950615718565b5b60200201516139609190615217565b61ffff168960008c600201878154811061397d5761397c615718565b5b9060005260206000200160009054906101000a900473ffffffffffffffffffffffffffffffffffffffff1673ffffffffffffffffffffffffffffffffffffffff1673ffffffffffffffffffffffffffffffffffffffff1681526020019081526020016000206000016001846139f291906154cb565b60058110613a0357613a02615718565b5b016000828254613a1391906151c1565b92505081905550613aaa828a60008d6002018881548110613a3757613a36615718565b5b9060005260206000200160009054906101000a900473ffffffffffffffffffffffffffffffffffffffff1673ffffffffffffffffffffffffffffffffffffffff1673ffffffffffffffffffffffffffffffffffffffff168152602001908152602001600020611b0d90919063ffffffff16565b15613be35780600183613abd91906151c1565b60068110613ace57613acd615718565b5b602002015161ffff168960008c6002018781548110613af057613aef615718565b5b9060005260206000200160009054906101000a900473ffffffffffffffffffffffffffffffffffffffff1673ffffffffffffffffffffffffffffffffffffffff1673ffffffffffffffffffffffffffffffffffffffff168152602001908152602001600020600001600184613b6591906154cb565b60058110613b7657613b75615718565b5b016000828254613b8691906154cb565b92505081905550613be2848b6002018681548110613ba757613ba6615718565b5b9060005260206000200160009054906101000a900473ffffffffffffffffffffffffffffffffffffffff168c6146179092919063ffffffff16565b5b5b50505050614026565b600c8510158015613bff5750600f8511155b15613ccc576002818360068110613c1957613c18615718565b5b6020020151613c289190615217565b61ffff168960008c6002018781548110613c4557613c44615718565b5b9060005260206000200160009054906101000a900473ffffffffffffffffffffffffffffffffffffffff1673ffffffffffffffffffffffffffffffffffffffff1673ffffffffffffffffffffffffffffffffffffffff168152602001908152602001600020600a016000828254613cbc91906151c1565b9250508190555050505050614026565b60108510158015613cde575060198511155b15613fa6576000613cf8868c6146d190919063ffffffff16565b90506002828460068110613d0f57613d0e615718565b5b6020020151613d1e9190615217565b61ffff168a60008d6002018881548110613d3b57613d3a615718565b5b9060005260206000200160009054906101000a900473ffffffffffffffffffffffffffffffffffffffff1673ffffffffffffffffffffffffffffffffffffffff1673ffffffffffffffffffffffffffffffffffffffff168152602001908152602001600020600501600183613db091906154cb565b60058110613dc157613dc0615718565b5b016000828254613dd191906151c1565b925050819055505b613e69818b60008e6002018981548110613df657613df5615718565b5b9060005260206000200160009054906101000a900473ffffffffffffffffffffffffffffffffffffffff1673ffffffffffffffffffffffffffffffffffffffff1673ffffffffffffffffffffffffffffffffffffffff1681526020019081526020016000206144de90919063ffffffff16565b15613f9c57818160068110613e8157613e80615718565b5b602002015161ffff168a60008d6002018881548110613ea357613ea2615718565b5b9060005260206000200160009054906101000a900473ffffffffffffffffffffffffffffffffffffffff1673ffffffffffffffffffffffffffffffffffffffff1673ffffffffffffffffffffffffffffffffffffffff168152602001908152602001600020600501600183613f1891906154cb565b60058110613f2957613f28615718565b5b016000828254613f3991906154cb565b92505081905550613f9781868d6002018881548110613f5b57613f5a615718565b5b9060005260206000200160009054906101000a900473ffffffffffffffffffffffffffffffffffffffff168e61458e909392919063ffffffff16565b613dd9565b5050505050614026565b614018878b6002018681548110613fc057613fbf615718565b5b9060005260206000200160009054906101000a900473ffffffffffffffffffffffffffffffffffffffff16600284866006811061400057613fff615718565b5b602002015161400f9190615217565b61ffff166144b0565b50505050614026565b505050505b505050505050565b6140366147f4565b61403e6147f4565b73158de12ee547eae06cbdb200a017aca6b75d230d8160006003811061406757614066615718565b5b602002019073ffffffffffffffffffffffffffffffffffffffff16908173ffffffffffffffffffffffffffffffffffffffff168152505073158de12ee547eae06cbdb200a017aca6b75d230d816001600381106140c7576140c6615718565b5b602002019073ffffffffffffffffffffffffffffffffffffffff16908173ffffffffffffffffffffffffffffffffffffffff168152505073158de12ee547eae06cbdb200a017aca6b75d230d8160026003811061412757614126615718565b5b602002019073ffffffffffffffffffffffffffffffffffffffff16908173ffffffffffffffffffffffffffffffffffffffff16815250508091505090565b6000806141706127d7565b84600001600085815260200190815260200160002061418d614782565b6006811061419e5761419d615718565b5b0154146141af57600191505061421c565b600190505b6141bc6113df565b811161421657828460000160006141d16127d7565b815260200190815260200160002082600681106141f1576141f0615718565b5b0154141561420357600191505061421c565b808061420e90615611565b9150506141b4565b60009150505b92915050565b81846000016000858152602001908152602001600020826006811061424a57614249615718565b5b01819055508284600001600084815260200190815260200160002061426d614782565b6006811061427e5761427d615718565b5b018190555050505050565b60008060006142966127d7565b9050600080600080600090508892505b6001886142b391906154cb565b81146143bc5760006001828a6142c991906154cb565b6142d391906154cb565b6142db6113df565b6142e591906152cc565b905080846142f3919061565a565b925080846143019190615248565b935060018961431091906154cb565b82101561437757600083146143315760018461432c91906151c1565b614349565b6000841461433f5783614348565b6143476113df565b5b5b94508a6000016000878152602001908152602001600020856006811061437257614371615718565b5b015495505b818061438290615611565b92505060018961439291906154cb565b8214156143b357600083146143a757826143b0565b6143af6113df565b5b94505b829350506142a6565b8484965096505050505050935093915050565b6000806143da6127d7565b8460000160008581526020019081526020016000206143f7614782565b6006811061440857614407615718565b5b01541480156144175750600083145b15614428576000809150915061445f565b6001846000016000858152602001908152602001600020614447614782565b6006811061445857614457615718565b5b0154915091505b9250929050565b600073158de12ee547eae06cbdb200a017aca6b75d230d905090565b6144ab83836064614491612bf2565b8561449c9190615471565b6144a69190615248565b612bfb565b505050565b6144d9838360646144bf612bf2565b856144ca9190615471565b6144d49190615248565b612bfb565b505050565b6000806040518060c00160405280600161ffff168152602001606461ffff1681526020016101f461ffff1681526020016109c461ffff1681526020016130d461ffff16815260200161f42461ffff16815250905080836006811061454557614544615718565b5b602002015161ffff168460050160018561455f91906154cb565b600581106145705761456f615718565b5b01541015614582576000915050614588565b60019150505b92915050565b83600a0160009054906101000a90048060201c73ffffffffffffffffffffffffffffffffffffffff169063ffffffff168484846040518463ffffffff1660e01b81526004016145df939291906150b7565b600060405180830381600087803b1580156145f957600080fd5b505af115801561460d573d6000803e3d6000fd5b5050505050505050565b6001836007015461462891906151c1565b6146306113df565b106146cc578260080160009054906101000a90048060201c73ffffffffffffffffffffffffffffffffffffffff169063ffffffff166001856007015461467691906151c1565b838560026040518563ffffffff1660e01b8152600401614699949392919061503a565b600060405180830381600087803b1580156146b357600080fd5b505af11580156146c7573d6000803e3d6000fd5b505050505b505050565b6000806002600185600701546146e791906154cb565b6146f19190615471565b600a6146fd91906154cb565b905060019150600f8361471091906154cb565b925080831161471f575061477c565b808361472b91906154cb565b9250600060028461473c919061565a565b1461475f5760016002846147509190615248565b61475a91906151c1565b61476d565b60028361476c9190615248565b5b8261477891906151c1565b9150505b92915050565b600090565b6040518060a00160405280600590602082028036833780820191505090505090565b6040518060800160405280600081526020016000815260200160008152602001600081525090565b604051806103200160405280601990602082028036833780820191505090505090565b6040518060600160405280600390602082028036833780820191505090505090565b600061482961482484615113565b6150ee565b9050808382526020820190508285602086028201111561484c5761484b61577b565b5b60005b8581101561487c57816148628882614886565b84526020840193506020830192505060018101905061484f565b5050509392505050565b600081359050614895816157a8565b61489e816154ff565b905092915050565b600082601f8301126148bb576148ba615776565b5b81356148cb848260208601614816565b91505092915050565b6000813590506148e3816157bf565b92915050565b6000815190506148f8816157bf565b92915050565b60006020828403121561491457614913615785565b5b600061492284828501614886565b91505092915050565b6000806040838503121561494257614941615785565b5b600061495085828601614886565b925050602061496185828601614886565b9150509250929050565b6000806040838503121561498257614981615785565b5b600061499085828601614886565b92505060206149a1858286016148d4565b9150509250929050565b600080604083850312156149c2576149c1615785565b5b600083013567ffffffffffffffff8111156149e0576149df615780565b5b6149ec858286016148a6565b925050602083013567ffffffffffffffff811115614a0d57614a0c615780565b5b614a19858286016148a6565b9150509250929050565b600060208284031215614a3957614a38615785565b5b6000614a47848285016148d4565b91505092915050565b600060208284031215614a6657614a65615785565b5b6000614a74848285016148e9565b91505092915050565b60008060408385031215614a9457614a93615785565b5b6000614aa2858286016148d4565b9250506020614ab385828601614886565b9150509250929050565b600080600060608486031215614ad657614ad5615785565b5b6000614ae4868287016148d4565b9350506020614af586828701614886565b9250506040614b06868287016148d4565b9150509250925092565b60008060008060808587031215614b2a57614b29615785565b5b6000614b38878288016148d4565b9450506020614b4987828801614886565b9350506040614b5a878288016148d4565b9250506060614b6b878288016148d4565b91505092959194509250565b600080600060608486031215614b9057614b8f615785565b5b6000614b9e868287016148d4565b9350506020614baf868287016148d4565b9250506040614bc086828701614886565b9150509250925092565b60008060008060808587031215614be457614be3615785565b5b6000614bf2878288016148d4565b9450506020614c03878288016148d4565b9350506040614c14878288016148d4565b9250506060614c25878288016148d4565b91505092959194509250565b6000614c3d8383614c61565b60208301905092915050565b6000614c558383614def565b60208301905092915050565b614c6a816154ff565b82525050565b614c79816154ff565b82525050565b6000614c8a82615159565b614c948185615194565b9350614c9f8361513f565b8060005b83811015614cd0578151614cb78882614c31565b9750614cc28361517a565b925050600181019050614ca3565b5085935050505092915050565b614ce681615164565b614cf081846151a5565b9250614cfb8261514f565b8060005b83811015614d2c578151614d138782614c49565b9650614d1e83615187565b925050600181019050614cff565b505050505050565b614d3d81615577565b82525050565b614d4c81615589565b82525050565b614d5b8161559b565b82525050565b6000614d6c8261516f565b614d7681856151b0565b9350614d868185602086016155ad565b614d8f8161578a565b840191505092915050565b608082016000820151614db06000850182614def565b506020820151614dc36020850182614def565b506040820151614dd66040850182614def565b506060820151614de96060850182614def565b50505050565b614df881615560565b82525050565b614e0781615560565b82525050565b6000602082019050614e226000830184614c70565b92915050565b6000604082019050614e3d6000830185614c70565b614e4a6020830184614c70565b9392505050565b60006020820190508181036000830152614e6b8184614c7f565b905092915050565b60006020820190508181036000830152614e8d8184614d61565b905092915050565b60006080820190508181036000830152614eaf8187614d61565b90508181036020830152614ec38186614d61565b90508181036040830152614ed78185614d61565b90508181036060830152614eeb8184614d61565b905095945050505050565b600060a0820190508181036000830152614f108188614d61565b90508181036020830152614f248187614d61565b90508181036040830152614f388186614d61565b90508181036060830152614f4c8185614d61565b90508181036080830152614f608184614d61565b90509695505050505050565b600060a082019050614f816000830185614d9a565b614f8e6080830184614dfe565b9392505050565b6000602082019050614faa6000830184614dfe565b92915050565b6000608082019050614fc56000830187614dfe565b614fd26020830186614c70565b614fdf6040830185614d34565b614fec6060830184614d52565b95945050505050565b600060808201905061500a6000830187614dfe565b6150176020830186614c70565b6150246040830185614dfe565b6150316060830184614d43565b95945050505050565b600060808201905061504f6000830187614dfe565b61505c6020830186614c70565b6150696040830185614dfe565b6150766060830184614d52565b95945050505050565b6000610160820190506150956000830186614dfe565b6150a26020830185614cdd565b6150af60c0830184614cdd565b949350505050565b60006060820190506150cc6000830186614dfe565b6150d96020830185614dfe565b6150e66040830184614c70565b949350505050565b60006150f8615109565b905061510482826155e0565b919050565b6000604051905090565b600067ffffffffffffffff82111561512e5761512d615747565b5b602082029050602081019050919050565b6000819050602082019050919050565b6000819050919050565b600081519050919050565b600060059050919050565b600081519050919050565b6000602082019050919050565b6000602082019050919050565b600082825260208201905092915050565b600081905092915050565b600082825260208201905092915050565b60006151cc82615560565b91506151d783615560565b9250827fffffffffffffffffffffffffffffffffffffffffffffffffffffffffffffffff0382111561520c5761520b61568b565b5b828201905092915050565b600061522282615511565b915061522d83615511565b92508261523d5761523c6156ba565b5b828204905092915050565b600061525382615560565b915061525e83615560565b92508261526e5761526d6156ba565b5b828204905092915050565b6000808291508390505b60018511156152c35780860481111561529f5761529e61568b565b5b60018516156152ae5780820291505b80810290506152bc8561579b565b9450615283565b94509492505050565b60006152d782615560565b91506152e283615560565b925061530f7fffffffffffffffffffffffffffffffffffffffffffffffffffffffffffffffff8484615362565b905092915050565b600061532282615560565b915061532d8361556a565b925061535a7fffffffffffffffffffffffffffffffffffffffffffffffffffffffffffffffff8484615362565b905092915050565b600082615372576001905061542e565b81615380576000905061542e565b816001811461539657600281146153a0576153cf565b600191505061542e565b60ff8411156153b2576153b161568b565b5b8360020a9150848211156153c9576153c861568b565b5b5061542e565b5060208310610133831016604e8410600b84101617156154045782820a9050838111156153ff576153fe61568b565b5b61542e565b6154118484846001615279565b925090508184048111156154285761542761568b565b5b81810290505b9392505050565b600061544082615511565b915061544b83615511565b92508161ffff04831182151516156154665761546561568b565b5b828202905092915050565b600061547c82615560565b915061548783615560565b9250817fffffffffffffffffffffffffffffffffffffffffffffffffffffffffffffffff04831182151516156154c0576154bf61568b565b5b828202905092915050565b60006154d682615560565b91506154e183615560565b9250828210156154f4576154f361568b565b5b828203905092915050565b600061550a8261551f565b9050919050565b600061ffff82169050919050565b600073ffffffffffffffffffffffffffffffffffffffff82169050919050565b600074ffffffffffffffffffffffffffffffffffffffffff82169050919050565b6000819050919050565b600060ff82169050919050565b600061558282615560565b9050919050565b600061559482615560565b9050919050565b60006155a682615560565b9050919050565b60005b838110156155cb5780820151818401526020810190506155b0565b838111156155da576000848401525b50505050565b6155e98261578a565b810181811067ffffffffffffffff8211171561560857615607615747565b5b80604052505050565b600061561c82615560565b91507fffffffffffffffffffffffffffffffffffffffffffffffffffffffffffffffff82141561564f5761564e61568b565b5b600182019050919050565b600061566582615560565b915061567083615560565b9250826156805761567f6156ba565b5b828206905092915050565b7f4e487b7100000000000000000000000000000000000000000000000000000000600052601160045260246000fd5b7f4e487b7100000000000000000000000000000000000000000000000000000000600052601260045260246000fd5b7f4e487b7100000000000000000000000000000000000000000000000000000000600052603160045260246000fd5b7f4e487b7100000000000000000000000000000000000000000000000000000000600052603260045260246000fd5b7f4e487b7100000000000000000000000000000000000000000000000000000000600052604160045260246000fd5b600080fd5b600080fd5b600080fd5b600080fd5b6000601f19601f8301169050919050565b60008160011c9050919050565b6157b18161553f565b81146157bc57600080fd5b50565b6157c881615560565b81146157d357600080fd5b5056fea26474726f6e582212200d4f8fb7924e535f6684ba7f1ec5980a39b21bd0499e2d879bc1956a8aa8982364736f6c63430008060033",
  "source": "// SPDX-License-Identifier: MIT\npragma solidity >=0.4.22 <0.9.0;\n\nimport \"./Strings.sol\";\nimport \"./ConstantLib.sol\";\nimport { SpaceMatrixLib } from \"./SpaceMatrixLib.sol\";\nimport { MemberWalletLib } from \"./MemberWalletLib.sol\";\nimport { MemberGroupLib } from \"./MemberGroupLib.sol\";\nimport { GlobalPlacementLib } from \"./GlobalPlacementLib.sol\";\n\ncontract Main {\n    using SpaceMatrixLib for SpaceMatrixLib.SpaceMatrix;\n    using GlobalPlacementLib for SpaceMatrixLib.SpaceMatrix;\n    using MemberWalletLib for MemberWalletLib.MemberWallet;\n    using Strings for uint256;\n\n    // struct\n    struct Reentry {\n        uint _ID;\n        uint256 _owner_ID;\n        address _addr;\n    }\n\n    // info of company\n    string _companyName;        //name of company\n    ConstantLib.MainWallet _main_wallet;\n\n    // info of crowdsale\n    uint256[2] _sharing;\n\n    // info of each space\n    SpaceMatrixLib.SpaceMatrix[5] _company_space_matrix;       // 5 space matrix for company\n\n    // info of individual member\n    mapping( address => MemberWalletLib.MemberWallet ) _member_wallet;       // member's wallet by current address.\n\n    // info of invited member\n    mapping( address => address ) _invite_member;       // invited member by current address.\n    mapping( address => uint ) _invite_nums;            // invited number of members by current address\n    address[] _member_addr;                             // address of all members\n\n    // possible reentry list\n    Reentry[] _re_entry_mems;\n\n    // other value\n    uint256 _value;\n\n    // Create a space model\n    constructor() {\n        uint i;\n        for ( i = 0 ; i < ConstantLib.getMemCnt(); i ++){\n            _company_space_matrix[i].createSpaceMatrix( i + 1 );            // create 5 individual space matrix.\n            _company_space_matrix[i].setFuncNextSpace( this.enterSpace );\n            _company_space_matrix[i].setFuncReentryMem( this.enterReenterMem );\n            _company_space_matrix[i].setFuncRegReentryMem( this.registerReentryMembers );\n            _company_space_matrix[i].setFuncDisplay( this.setValue );\n        }\n    }\n\n    function registerReentryMembers(uint space_ID, uint256 owner_ID, address addr) external {         // register reentered member into crowdsale\n        _re_entry_mems.push(Reentry({\n            _ID : space_ID,\n            _owner_ID : owner_ID,\n            _addr : addr\n        }));\n    }\n\n    function enterReenterMem() external {           // call action to let re-enter one by one from some space\n        if(_re_entry_mems.length == 0) return;\n        Reentry memory re_entry_mem = _re_entry_mems[_re_entry_mems.length - 1];\n        _re_entry_mems.pop();\n        this.enterSpace(re_entry_mem._ID, re_entry_mem._addr, re_entry_mem._owner_ID, 1);\n    }\n\n    function enterSpace(uint space_ID, address addr, uint256 owner_ID , uint mem_type) external {         // get memberID of company\n        _company_space_matrix[space_ID - 1].enterSpaceMatrix( _member_wallet , _main_wallet , _invite_member, _sharing , addr, owner_ID, mem_type);\n    }\n\n    function enterCrowdSale(address addr, address invite_addr) public  {         // new member enters into crowdsale with itself address\n        if(_invite_member[addr] == address(0x0)){\n            _member_addr.push(addr);\n            _invite_member[addr] = invite_addr;\n        }\n        _invite_nums[invite_addr] ++;\n        _company_space_matrix[0].enterSpaceMatrix( _member_wallet , _main_wallet , _invite_member , _sharing , addr, 0, 0);\n    }\n\n    function enterMultiEnter(address[] memory addr_list , address[] memory invite_addr_list ) external{\n        uint i;\n        for(i = 0; i < addr_list.length; i++){\n            this.enterCrowdSale(addr_list[i], invite_addr_list[i]);\n        }\n    }\n\n    // directly tronlink to current upgrade wallet\n    function getCurUpgradeSpace(address addr) external view returns ( uint space_ID ){\n        space_ID = 1;\n        uint i;\n        for(i = 0; i < ConstantLib.getMemCnt(); i++){\n            if( _company_space_matrix[i]._addr_member_group[addr]._member_group.length != 0 ) space_ID = i + 1;\n            else    break;\n        }\n\n        return space_ID;\n    }\n\n    // directly tronlink to current pif wallet\n    function pushMoneyToPIF(address addr  , uint256 amount) external {\n        _member_wallet[addr]._pif_wallet += amount;\n    }\n\n    function pushMoneyToUpgrade ( address addr , uint256 amount) external {\n        uint16[6] memory space_price = [1, 100, 500, 2500, 12500, 62500];\n        uint space_ID = this.getCurUpgradeSpace(addr);\n        // convert dollar to TRX\n        if( space_ID == 5) return;\n\n        _member_wallet[addr]._upgrade_wallet[space_ID - 1] += amount;\n        while( _member_wallet[addr].CheckUpgradeWallet(space_ID) ){\n            _member_wallet[addr]._upgrade_wallet[space_ID - 1] -= space_price[space_ID + 1];       // decrease wallet when upgrade with the money\n            this.enterSpace(space_ID , addr , 0, 2);\n        }\n    }\n    // directly\n\n    // get Information\n    function getReserveInfo( uint space_ID , uint member_TYPE , uint256 cursor, uint256 sub_cursor ) external view returns(MemberGroupLib.Member memory , uint256 ) {\n        uint i;\n        uint cnt = 0;\n        MemberGroupLib.Member memory result;\n        address mem_addr = _company_space_matrix[space_ID - 1]._ID_member_group[cursor];\n\n        MemberGroupLib.Member[] memory mem_group = _company_space_matrix[space_ID - 1]._addr_member_group[mem_addr]._member_group;\n        if(mem_group.length != 0 ){\n            if( sub_cursor < mem_group.length )\n                result = mem_group[sub_cursor];\n            if( sub_cursor < mem_group.length - 1 )\n                sub_cursor ++;\n            else\n                sub_cursor = 0;\n        }\n        else\n            sub_cursor = 0;\n        return ( result , sub_cursor );\n    }\n\n\n    function getMemberInfo(uint space_ID, address mem_addr , uint nIndex) external view returns ( string memory , string memory , string memory , string memory , string memory ){\n        uint256 lv_1 = 0;\n        uint256 lv_2 = 0;\n        uint256 lv_3 = 0;\n        MemberGroupLib.Member memory member = _company_space_matrix[space_ID - 1]._addr_member_group[mem_addr]._member_group[nIndex];\n\n        (lv_1 , lv_2, lv_3) = _company_space_matrix[space_ID - 1].getLevelNumbers(member._member_ID);\n\n        string memory s_lv_1 = Strings.toString( lv_1 );\n        string memory s_lv_2 = Strings.toString( lv_2 );\n        string memory s_lv_3 = Strings.toString( lv_3 );\n        string memory s_pos_ID = Strings.toString( member._member_ID );\n        string memory s_type = Strings.toString( uint256( member._member_TYPE ) );\n\n        return ( s_type , s_pos_ID , s_lv_1 , s_lv_2 , s_lv_3 );\n    }\n\n    function getMemberCnt( uint space_ID , address mem_addr ) external view returns ( string memory ) {\n        MemberGroupLib.Member[] memory member = _company_space_matrix[space_ID - 1]._addr_member_group[mem_addr]._member_group;\n        string memory mem_cnt = Strings.toString( member.length );\n\n        return mem_cnt;\n    }\n\n    function getMemberWalletInfo( address mem_addr ) external view returns ( uint256, uint256[5] memory , uint256[5] memory ) {\n        MemberWalletLib.MemberWallet memory member_wallet = _member_wallet[mem_addr];\n\n        return ( member_wallet._pif_wallet , member_wallet._upgrade_wallet , member_wallet._re_entry_wallet);\n    }\n\n    function getWalletInfo( ) external view returns ( string memory, string memory, string memory, string memory) {\n        string memory unclaimed_money = Strings.toString( _main_wallet._unclaimed_wallet);\n        string memory company_wallet_1 = Strings.toString( _main_wallet._company_wallet[0]);\n        string memory company_wallet_2 = Strings.toString( _main_wallet._company_wallet[1]);\n        string memory company_wallet_3 = Strings.toString( _main_wallet._company_wallet[2]);\n\n        return ( unclaimed_money , company_wallet_1 , company_wallet_2 , company_wallet_3 );\n    }\n\n    function getAllMemberAddrs() external view returns ( address[] memory) {\n        return _member_addr;\n    }\n\n    function getTotalNumBySpace (uint space_ID ) external view returns ( string memory ) {\n        string memory total_mem = Strings.toString( _company_space_matrix[space_ID - 1]._total_positions - 1);\n\n        return total_mem;\n    }\n\n    function setValue ( uint256 value ) external {\n        _value = value;\n    }\n\n    function output () external view returns ( uint ) {\n        // string memory str_value = Strings.toString( _value );\n        return _value;\n    }\n}\n\n",
  "sourcePath": "src/contracts/Main.sol",
  "compiler": {
    "name": "solc",
    "version": "0.8.6+commit.0e36fba0.mod.Emscripten.clang"
  },
  "schemaVersion": "2.0.1",
  "updatedAt": "2022-01-19T06:32:22.114Z"
}